:020000040000FA
:03000000020800F3
:03000B000209FCEB
:030023000209705F
:03002B0002093394
:10080000787FE4F6D8FD7581200208470209DDE40F
:1008100093A3F8E493A34003F68001F208DFF48089
:1008200029E493A3F85407240CC8C333C4540F44D9
:1008300020C8834004F456800146F6DFE4800B01B3
:10084000020408102040809009D0E47E019360BC2F
:10085000A3FF543F30E509541FFEE493A360010E4B
:10086000CF54C025E060A840B8E493A3FAE493A372
:10087000F8E493A3C8C582C8CAC583CAF0A3C8C593
:1008800082C8CAC583CADFE9DEE780BE900000E007
:10089000FEA3E0FFEE7034EF14601414601B1460CC
:1008A0002224037026C290C291D292D293801CD28D
:1008B00090C291C292D2938012D290D291C292C22F
:1008C000938008C290D291D292C293900001E0042A
:1008D000F07006900000E004F0900000E07004A3C7
:1008E000E064047006900000F0A3F022900003E0A2
:1008F000FEA3E0701DEE701A200005D200120996CA
:10090000308204D201800B208208300105120A01D6
:10091000C201900004E004F07006900003E004F0CF
:10092000900003E07004A3E064F07006900003F010
:10093000A3F022C0E0C0F0C083C082C0D075D00058
:10094000C000C001C002C003C004C005C006C0078B
:10095000C2CF12088CD007D006D005D004D003D067
:1009600002D001D000D0D0D082D083D0F0D0E032FD
:10097000C0E0C083C082309904C299801230980FC1
:10098000C298200208900002E599F08002C202D0CD
:1009900082D083D0E032538ECF75CA1875CBFC75E8
:1009A000CC1875CDFC75C804D2AD22538EF0538996
:1009B0000F438902758DA9D29CD299D28E22538E73
:1009C000F05389F0438902758A06758C06D28C2211
:1009D000C102C100C101C10341000206001209EABF
:1009E0003003FDC2031208EC80F61209F31209BEAF
:1009F0000209ABD288D2A9D2ACD2AF22C28DD20327
:040A000032B2CA2222
:00000001FF
